:100000000C9446000C945D000C945D000C945D0013
:100010000C945D000C945D000C945D000C945D00EC
:100020000C945D000C945D000C945D000C945D00DC
:100030000C945D000C945D000C945D000C945D00CC
:100040000C945D000C945D000C945D000C945D00BC
:100050000C945D000C945D000C945D000C945D00AC
:100060000C945D000C945D000C945D000C945D009C
:100070000C945D000C945D000C945D000C945D008C
:100080000C945D000C945D000C945D0011241FBE67
:10009000CFEFD0E4DEBFCDBF11E0A0E0B1E0E2ECF5
:1000A000F2E000E00BBF02C007900D92A231B10751
:1000B000D9F70E9499000C945F010C940000CF9333
:1000C000DF9300D01F92CDB7DEB789837B836A832D
:1000D00089818A3031F48A819B81BC018DE00E9444
:1000E0005F0080EC90E0FC018081882F90E08072BE
:1000F0009927892BB1F386EC90E02981FC012083BC
:1001000080E090E00F900F900F90DF91CF910895D5
:10011000CF93DF93CDB7DEB78AE790E02AE730E0F0
:10012000F9012081206EFC0120830000DF91CF9136
:100130000895CF93DF9300D000D000D0CDB7DEB7C5
:1001400081E290E0FC01108282E290E02FEFFC015E
:10015000208384E290E02FEFFC01208385E290E091
:10016000FC01108280911001909111019695879564
:1001700096958795969587959C838B830E9488009A
:1001800088E790E0FC01808191819E838D831A82B3
:10019000198289819A81880F991F81609A83898346
:1001A0002D813E818B819C812817390738F0898108
:1001B0009A81880F991F81609A8389838B819C81A2
:1001C0009C01220F331F8D819E818217930738F087
:1001D00089819A81880F991F81609A8389832B81F5
:1001E0003C81C901880F991F280F391F8D819E817D
:1001F0008217930738F089819A81880F991F81604F
:100200009A8389838B819C819C01220F331F220F4B
:10021000331F8D819E818217930738F089819A81DF
:10022000880F991F81609A8389832B813C81C90142
:10023000880F991F880F991F280F391F8D819E8164
:100240008217930738F089819A81880F991F8160FE
:100250009A8389832B813C81C901880F991F820F62
:10026000931F880F991F9C018D819E818217930790
:1002700038F089819A81880F991F81609A838983D8
:100280002B813C81C901880F991F880F991F880F06
:10029000991FAC01421B530B9A018D819E818217DD
:1002A000930738F089819A81880F991F81609A831A
:1002B000898385E290E02981FC01208361CFF89455
:0202C000FFCF6E
:1002C20000000002000000005F000000000030009B
:0202D200E00149
:00000001FF
